:020000040800F2
:2000000000200020D91A000895190008971900080000000000000000000000000000000037
:200020000000000000000000000000009919000800000000000000009B1900089D1900088C
:20004000291B0008291B0008291B0008291B0008291B0008291B0008291B0008291B000840
:20006000291B0008291B0008291B0008291B0008291B0008291B000800000000291B00086C
:2000800000000000291B00080000000000000000291B000800000000291B0008291B000830
:2000A000291B0008291B0008291B0008291B0008291B0008291B0008291B0008291B0008E0
:2000C00010B5064C2378002B07D1054B002B02D0044800E000BF0123237010BD6800002027
:2000E00000000000A0230008044B10B5002B03D00349044800E000BF10BDC0460000000019
:200100006C000020A0230008002243088B4274D303098B425FD3030A8B4244D3030B8B4230
:2001200028D3030C8B420DD3FF22090212BA030C8B4202D31212090265D0030B8B4219D334
:2001400000E0090AC30B8B4201D3CB03C01A5241830B8B4201D38B03C01A5241430B8B42BD
:2001600001D34B03C01A5241030B8B4201D30B03C01A5241C30A8B4201D3CB02C01A52411E
:20018000830A8B4201D38B02C01A5241430A8B4201D34B02C01A5241030A8B4201D30B02D4
:2001A000C01A5241CDD2C3098B4201D3CB01C01A524183098B4201D38B01C01A524143091B
:2001C0008B4201D34B01C01A524103098B4201D30B01C01A5241C3088B4201D3CB00C01A8E
:2001E000524183088B4201D38B00C01A524143088B4201D34B00C01A5241411A00D2014630
:20020000524110467047FFE701B5002000F006F802BDC0460029F7D076E770477047C0460E
:20022000002B11D1002A0FD1002900D1002802D00021C943081C07B4024802A140180290D0
:2002400003BDC046D9FFFFFF03B4684601B5029800F006F8019B9E4602B00CBC7047C046A8
:20026000F0B54F464646D646C0B5040082B00D00914698468B422FD82CD04146484600F05A
:20028000B1F829000600200000F0ACF8331A9C46203B9A4600D576E04B46524693401F0022
:2002A0004B46624693401E00AF4228D825D05346A41BBD41002B00DA7BE0002200230092A1
:2002C00001930123524693400193012362469340009318E08242D0D9002200230092019365
:2002E0000A9B002B01D01C605D600098019902B01CBC90469946A246F0BDA342D7D9002267
:200300000023009201936346002BE9D0FB079846414672080A437B0866460EE0AB4201D1FD
:20032000A2420CD8A41A9D41012024196D410021013E24184D41002E06D0AB42EED9013E2C
:2003400024196D41002EF8D100980199534600196941002B23DB2B005246D3402A0064465A
:20036000E2401C0053461500002B2DDB26005746BE40330026006746BE403200801A9941F3
:2003800000900191ACE7624620239B1A4A46DA406146130042468A4017001F4380E76246CA
:2003A00020239B1A2A0066469A402300F3401343D4E76246202300219B1A00220091019227
:2003C0000122DA40019280E72023624626009B1ADE402F00B0466646B74046463B003343FD
:2003E000C8E7C04610B5002903D100F007F8203002E0081C00F002F810BDC0461C21012323
:200400001B04984201D3000C10391B0A984201D3000A08391B09984201D30009043902A2E0
:20042000105C40187047C046040302020101010100000000000000000023C25C0133002A8D
:20044000FBD1581E7047000010B50400094B1868FA218900FFF758FE00F06EF8002801D0C7
:20046000012010BD013000222100404200F034F80020F6E70000002010B5084A136840216C
:200480000B4313600020FFF7DFFF041E02D00124200010BD01F070FAFAE7C04600200240FD
:2004A000024A1368013313607047C04694000020014B18687047C0469400002070B50400F7
:2004C000FFF7F6FF0500631C00D00134FFF7F0FF401BA042FAD370BD70B5002811DB8408C7
:2004E000134DC034A400625903231840C000FC331E008640B24389010B4083401343635161
:2005000070BDC0B20F220240083A920806329200084BD3185D6803242040C000FF221400A4
:200520008440A54389010A4082402A435A60E7E700E100E000ED00E001380A4B98420FD8A7
:20054000094A50600948036A1B021B0AC02109060B4303620023936007331360002070475B
:200560000120FCE7FFFFFF0010E000E000ED00E0F0B5C64600B5002338E0052600E000260B
:20058000AE4035003D430234A400554EA551554C25684246D4432E0026404A68D20302D586
:2005A000424615432E004F4D2E606D682E0026404A68920302D5424615432E00494D6E600A
:2005C000AD682E0026404A68D20202D5424615432E00444DAE60ED682C404A68920202D58A
:2005E00042462A4314003F4AD46001330A681400DC4072D001249C4022409046F5D04D686A
:20060000022D01D0122D0ED1DD080835AD002F5807261E40B6000F22B24097430A69B240C3
:2006200016003E432E504D686E1E012E03D9112D01D0122D12D185685F000326BE40B543BD
:200640002E00CD68BD40354385604568A5434A681609012434409C402C43446007685E0022
:2006600003242500B540ED432F404A681440B4403C430460C46825408C68B4402C43C460B1
:200680004A68D200B1D5184D6C6B012634436C639C08A51CAD00124EAF5903261E40B500F1
:2006A0000F26AE40B743A026F605B04200D166E70E4EB0420BD00E4EB0420AD00D4EB042AE
:2006C00009D00D4EB04200D157E7062658E7012656E7022654E7032652E704BC9046F0BD0E
:2006E0000000014000040140001002400004005000080050000C0050001C0050002A01D1B2
:20070000816270478161FCE7436959404161704710B5264BD9680C230B40082B42D00C2B6F
:2007200011D0042B09D0214B5A68520B07231340013380200002984010BD1C4B1B68DB0682
:2007400032D51B48F8E78A0C0F231340194AD05C890D032211400131144BDB68DB030DD407
:20076000124B1B68DB0613D54201121A93019B1ADB001B181802FFF7C7FCDDE74201121A04
:2007800093019B1ADB001B185802FFF7BDFCD3E74201121A93019B1ADB001B189802FFF7E9
:2007A000B3FCC9E70448C7E70448C5E70010024000093D000024000800127A000024F40080
:2007C000F0B583B0041E00D197E2CA4BDA680C251540DA688026760216400368DB0736D5EA
:2007E000082D2CD00C2D28D063688022520293424DD0A022D202934250D0BE4B1A68BE49C7
:200800000A401A601A68802149020A400192019A1A68BA490A401A606368002B4AD0FFF7DF
:2008200047FE0700B34B1B689B0310D4FFF740FEC01B6428F6D9032060E2002ED4D0AD4BD0
:200840001B689B0303D56368002B00D158E223689B0764D5E368042D3CD00C2D38D0002B44
:2008600000D1AEE0A3490A680920824313430B60FFF71EFE06009F4B1B685B0700D597E0D9
:20088000FFF716FE801B0228F5D9032036E2994A116880235B020B431360BDE7954B19685E
:2008A0008022D2020A431A601968802252020A431A60B1E7FFF7FCFD07008E4B1B689B0335
:2008C000C5D5FFF7F5FDC01B6428F6D9032015E2002EC4D1874A1268520702D5002B00D10C
:2008E00010E2844E726886490A40216909020A437260326809218A4313433360FFF708FF16
:20090000F26812090F2313407E4AD35CD8407E4B18600020FFF798FD002800D0EEE1236890
:20092000DB062CD5002D5FD1724B1B689B0503D5E369002B00D1E7E16E4A536873490B4036
:20094000616A0B43536053681B021B0A216A09060B435360636A590B013180231B028B4045
:20096000D16809090F220A4066498A5CD340664A13600020FFF768FD002800D0BEE1236849
:200980001B077DD56369002B67D05A4A136D01210B431365FFF78CFD0600564B1B6D9B0759
:2009A0006ED4FFF785FD801B0228F6D90320A5E150494B68524A13402269120213434B6065
:2009C000ADE74C4A136801218B431360FFF770FD0600484B1B685B07A1D5FFF769FD801BC1
:2009E0000228F6D9032089E1E369002B22D0414A116880235B000B431360FFF759FD0600F3
:200A00003C4B1B689B0506D4FFF752FD801B0228F6D9032072E1374A53683C490B40616A2C
:200A20000B43536053681B021B0A216A09060B435360A4E72F4A136835490B401360FFF76C
:200A400037FD06002B4B1B689B0598D5FFF730FD801B0228F6D9032050E1264A136D012139
:200A60008B431365FFF724FD0600224B1B6D9B0706D5FFF71DFD801B0228F6D903203DE1BC
:200A800023685B0700D48CE01A4B9B6BDB001BD4184A916B80235B050B43936301261D4BC0
:200AA0001B68DB0512D5A36880225200934235D0002B4BD10F4B1A6D15490A401A651A6D3D
:200AC00015490A401A652FE00026E8E7114A116880235B000B431360FFF7EAFC07000D4B1D
:200AE0001B68DB05DFD4FFF7E3FCC01B6428F6D9032003E100100240FFFFFEFFFFFFFBFF89
:200B0000FFE0FFFF0C24000800000020FF1FFFFFFFFEFFFF00700040FFFBFFFF7E4A116D9B
:200B200080235B000B431365A368002B28D0FFF7BFFC0700784B1B6D9B0530D4FFF7B8FC72
:200B4000C01B764B9842F5D90320D7E0A022D200934209D0704B1A6D71490A401A651A6DE9
:200B600070490A401A65DFE76B4B196D013AFF3A0A431A65196D802252000A431A65D3E7B1
:200B8000FFF796FC0700644B1B6D9B0507D5FFF78FFCC01B614B9842F5D90320AEE0012E83
:200BA00021D023689B063CD5A369002B21D05A4B99680120014399605A6B02435A635A4A70
:200BC000116A80239B010B431362FFF771FC0600514B9B689B0724D4FFF76AFC801B0228D5
:200BE000F6D903208AE04C4A936B50490B409363D7E7494A936801218B4393604A4A136AEB
:200C00004B490B401362FFF753FC0600424B9B689B0706D5FFF74CFC801B0228F6D9032033
:200C20006CE0A36A002B00D170E00C2D49D0022B12D0394A13683F490B401360FFF738FC40
:200C40000400354B1B689B0139D5FFF731FC001B0228F6D9032051E02F4A136835490B409B
:200C60001360FFF725FC05002B4B1B689B0106D5FFF71EFC401B0228F6D903203EE0264961
:200C8000CB682D4A1340E26A206B0243606B02431343CB600A6880235B0413430B60FFF77F
:200CA00007FC04001C4B1B689B0106D4FFF700FC001B0228F6D9032020E000201EE0002066
:200CC0001CE0012B24D0144BDA6880235B021340E16A8B4201D0012010E0F0239B03134006
:200CE000216B8B4201D0012008E0C0231B041A40636B9A420ED0012000E0012003B0F0BD5B
:200D00000120FBE70120F9E70120F7E70020F5E70120F3E70020F1E70010024088130000F4
:200D2000FFFEFFFFFFFBFFFF00000140FFFFFFEFFFDFFFFFFFFFFFFEFFFF02FF70B5040094
:200D40000D00002800D1BAE05F4B1A68012313408B420BD25C490B68012293432B430B60BC
:200D60000B681A40AA4201D00120A9E023689B0706D5564AD368F0218B43A1680B43D360F3
:200D80002368DB0764D56368022B09D0032B29D0012B2DD04D4A1268920506D401208FE07A
:200DA0004A4A1268920300D48BE04849CA68032082431343CB60FFF77BFB06006368022BBB
:200DC0001CD0032B28D0012B34D0404BDB680C221A423DD0FFF76CFB801B3D4B9842F4D945
:200DE00003206DE0394A12689201DED4012067E0364A12685207D8D4012061E0334BDA68B8
:200E00000C231340082B23D0FFF752FB801B304B9842F3D9032053E02C4BDA680C2313409A
:200E20000C2B15D0FFF744FB801B294B9842F3D9032045E0254BDA680C231340042B07D02A
:200E4000FFF736FB801B224B9842F3D9032037E01D4B1A6801231340AB420BD91A490B687B
:200E6000012293432B430B600B681A40AA4201D0012025E023685B0706D5144AD368154931
:200E80000B40E1680B43D36023681B0707D50F49CB68114A13402269D2001343CB60FFF7A7
:200EA00037FC0A4BDA6812090F2313400B4AD35CD8400B4B18600020FFF7C6FA00E0012087
:200EC00070BD0120FCE7C046002002400010024088130000FFF8FFFFFFC7FFFF0C2400089B
:200EE00000000020014B18687047C0460000002010B5FFF7F7FF044BDA68120A072313404E
:200F0000024AD35CD84010BD001002401C24000810B5FFF7E7FF044BDA68D20A072313404C
:200F2000024AD35CD84010BD001002401C24000870B5040082231B0102681A425AD0704B22
:200F40009B6BDB0000D593E06D4A916B80235B050B43936301256B4B1B68DB0500D489E0F2
:200F6000674B1A68C0239B031A4061680B40934200D194E0C0239B020A001A409A4200D1A3
:200F800095E05F4B1B6DC022920213401FD01140994202D02268920608D4C0229202A16877
:200FA0000A409A4213D023681B0510D5544B186D554A02401E6D8021090331431965196DE3
:200FC000524E314019651A65C30500D576E06368C022920219001140914200D17EE04849D2
:200FE0000B6DC02292026068024013430B65012D00D17DE02368DB0706D5414AD36C0321A1
:201000008B43E1680B43D36423689B0706D53C4AD36C0C218B4321690B43D36423685B0770
:2010200006D5374AD36C3A490B4061690B43D36423681B0706D5324AD36C36490B40A169E1
:201040000B43D36423685B0606D52D4AD36C32490B40216A0B43D36423681B064ED5284A77
:20106000D36C2E490B40E1690B43D364002070BD002570E7234A116880235B000B43136032
:20108000FFF716FA06001F4B1B68DB0500D567E7FFF70EFA801B6428F5D90320E7E7C0238D
:2010A0009B03A0680340934200D063E769E7144B1B689B0300D464E70120D8E7FFF7F8F9A2
:2010C00006000F4B1B6D9B0500D580E7FFF7F0F9801B134B9842F4D90320C8E708490A6838
:2010E00010480240C0208003034013430B6076E70A008B6B0C490B4093637BE70020B6E7DD
:201100000010024000700040FFFFFCFFFFFFF7FFFFF3FFFFFFCFFFFFFFFFFFFBFFFFF3FF3C
:2011200088130000FFFFCFFFFFFFFFEFD0B50400016883680269134342691343C26913433C
:201140000A68C048024013430B6022685368BE490B40E1680B435360A1692268BB4B9A42BB
:2011600001D0236A19439368B94803400B4393602268B84B9A4216D0B74B9A4227D0B34B13
:201180009A4239D01023B1498A4257D080221202E169914200D18CE0082B00D949E19B0069
:2011A000AE4AD3589F46AE4BD96C03230B40012B09D0002B05D0022B3AD0032B05D0102306
:2011C000E1E70123DFE70423DDE70823DBE7A44BD96C0C230B40042B0AD005D9082B29D0C4
:2011E0000C2B07D10823CEE7002B03D10023CAE70423C8E71023C6E7994BDB6CC021090161
:201200000B408021C9008B420ED009D9802109018B4211D0C02109018B4207D10823B2E7DF
:20122000002B03D10023AEE70423ACE71023AAE70223A8E70223A6E70223A4E7022B2DD039
:2012400007D9042B30D0082B00D0F5E08020000207E0002B00D0EFE0FFF74AFE002800D11D
:20126000ECE0626853009B18834200D9E8E01303834200D206E1070E0602500800218019A9
:2012800079410023FEF7CCFF764BC218764B9A4200D9F9E02368D860002085E0704B1B6841
:2012A000DB0604D47148DCE7FFF732FAD6E77048D7E7082B62D89B006E4AD3589F46FFF7DE
:2012C00017FE400063685B08C0186168FEF71CFF03041B0C002068491A00103A8A4200D9D2
:2012E000D4E00F22190091435B08083A13400B432268D36058E0FFF70BFE400063685B0874
:20130000C0186168FEF700FF03041B0C0020E2E7534B1B68DB060BD563685808574B9C4690
:2013200060446168FEF7F0FE03041B0C0020D2E763685808524B9C4660446168FEF7E4FE68
:2013400003041B0C0020C6E7FFF7E2F9400063685B08C0186168FEF7D7FE03041B0C00209A
:20136000B9E76368580880235B029C4660446168FEF7CAFE03041B0C0020ACE70120002371
:20138000A9E7FFF7B5FD63685B08C0186168FEF7BBFE03041B0C002037491A00103A8A429A
:2013A00000D975E02268D360002323666366D0BDFFF7AEFD63685B08C0186168FEF7A4FE39
:2013C00003041B0C0020E7E7254B1B68DB060BD563685808264B9C4660446168FEF794FECB
:2013E00003041B0C0020D7E7636858081F4B9C4660446168FEF788FE03041B0C0020CBE782
:20140000FFF786F963685B08C0186168FEF77CFE03041B0C0020BFE76368580880231B023A
:201420009C4660446168FEF76FFE03041B0C0020B2E701200023AFE70120B5E70020B3E7C3
:201440000120B1E7F369FFEFFFCFFFFF00480040FFF4FFFF0038014000440040B823000864
:201460000010024000FDFFFFFFFC0F000024F40000093D00DC230008EFFF000000127A0036
:201480000048E80101208FE701208DE701208BE7012089E7436ADB0706D5026853682C49C7
:2014A0000B40816A0B435360436A9B0706D50268536828490B40C16A0B435360436A5B07AF
:2014C00006D50268536824490B40016B0B435360436A1B0706D50268536820490B40416BB8
:2014E0000B435360436ADB0606D5026893681C490B40816B0B439360436A9B0606D50268AD
:20150000936818490B40C16B0B439360436A5B060BD50268536814490B40016C0B4353608E
:2015200080235B03026C9A420AD0436A1B0606D5026853680D490B40816C0B435360704772
:20154000026853680A490B40416C0B435360ECE7FFFFFDFFFFFFFEFFFFFFFBFFFF7FFFFFDE
:20156000FFEFFFFFFFDFFFFFFFFFEFFFFFFFF7FFFFFF9FFFF0B5C64600B506000C00170098
:201580009846069D3368DB6923401B1B5A425341BB421CD16B1CF5D0FEF78AFF4346C01A0B
:2015A000A84201D8002DEDD1326813680A490B40136032689368A331FF318B4393602023BA
:2015C0007367B36750330022F254032000E0002004BC9046F0BDC0465FFEFFFFF0B585B08B
:2015E00004000E0017001D00436F202B5FD1002960D0002A60D080235B0182689A4218D018
:201600007023E35C012B59D070230122E2540023E36721336367FEF74BFF03905023E752AE
:201620000233E75280235B01A2689A4208D0002716E00369002BE3D1CB07E1D5012037E057
:201640002369002B21D000270AE03B882268DB05DB0D936202375222A35A013B9BB2A3529F
:201660005223E35A9BB2002B12D00095039B002280212000FFF77EFF002821D1002EE4D0D9
:20168000327823689A620136E5E737000026E7E70095039B002240212000FFF76BFF00288D
:2016A00010D12023636750330022E25400E0022005B0F0BD0120FBE70120F9E70220F7E7F9
:2016C0000320F5E70320F3E730B583B004000023C367FEF7EDFE050023681B681B070CD4B0
:2016E00023681B685B0715D420236367A36750330022E254002003B030BD80210C4B009354
:201700000300002289032000FFF734FF0028E7D00320F0E78021064B00932B000022C90358
:201720002000FFF727FF0028DED00320E3E7C046FFFFFF0110B5041E2ED0436F002B21D0F3
:20174000242363672268136801218B4313602000FFF7ECFC012814D0636A002B18D122689A
:2017600053680E490B405360226893682A218B4393602268136829390B4313602000FFF78A
:20178000A3FF10BD70330022C25400F075F9D7E72000FFF77FFEE2E70120F2E7FFB7FFFFD9
:2017A00010B586B01422002101A800F0E9F90E4AD16A01231943D162D26A13400093009B59
:2017C000A024E405002204212000FEF797FF042301930D33029300230393049301A92000C0
:2017E000FEF7C6FE06B010BD0010024030B59DB0382200210EA800F0C3F91422002109A844
:2018000000F0BEF924220021684600F0B9F913490B68134A1A4080231B0113430B60102331
:201820000E930125159500241694A0231B02179318940EA8FEF7C4FF0F2309930A940B94BA
:201840000C940D94002109A8FFF778FA009503946846FFF76DFB1DB030BDC0460070004065
:20186000FFE7FFFFF0B5BDB0FEF706FEFFF7BEFFFFF796FF00F0E2F834AC364B250007CB19
:2018800007C51A001B682B6013792B712000FEF7D3FD82B2304E642321003000FFF79EFE2B
:2018A0002E4922000B0083CB83C223CB23C203CB03C22000FEF7C0FD82B2642321003000AD
:2018C000FFF78CFE002300930133002224491BA800F05EF91BA8FEF7AFFD82B264231BA922
:2018E0003000FFF77BFE00221E49200000F050F92000FEF7A1FD82B2642321003000FFF7B2
:201900006DFE00221849200000F042F92000FEF793FD82B2642321003000FFF75FFE134A2D
:20192000541C134902A800F033F902A8FEF784FD82B2642302A90848FFF750FEA020042116
:20194000C005FEF7E1FEFA208000FEF7B7FD2200E6E7C0462424000898000020C8240008BA
:20196000382400088C240008A0240008E4070000B424000870470000054B5A6B01210A4379
:201980005A63996B802252050A439A637047C046001002407047FEE77047704710B5FEF770
:2019A0007FFD10BD10B503000B4A1268002A08D0094A1068C3186A46934206D8064A136079
:2019C00010BD054A05491160F2E700F0AFF80C23036001204042F3E78400002020010020C8
:2019E000104B1968802252000A431A60DA680E490A40DA601A680D490A401A609A68012173
:201A00008A439A601A680A490A401A60DA6809490A40DA6000221A61074B802212059A60AC
:201A20007047C046001002400C40FF88F6FFF6FEFFFFFBFFFFFF02FF00ED00E010B50C48FE
:201A40000C4B0360E1235B02436000238360C36003610C2242618361C36103624362FFF762
:201A600069FE002800D110BDFFF784FFFBE7C046980000200038014010B586B00400142272
:201A8000002101A800F07CF82268114B9A4201D006B010BD0F4B596B8022D2010A435A6365
:201AA000D96A01221143D962DB6A1A400092009BC023DB000193022302930133049301335A
:201AC0000593A02001A9C005FEF752FDE0E7C04600380140001002400D488546002103E03F
:201AE0000C4B5B58435004310B480C4B42189A42F6D30B4A02E0002313600432094B9A4238
:201B0000F9D3FFF76DFF00F017F8FFF7ABFEFEE7002000202C2500080000002068000020D3
:201B2000680000201C010020FEE70000014B18687047C0460400002070B500260C4D0D4C51
:201B4000641BA410A64209D1002600F029FC0A4D0A4C641BA410A64205D170BDB300EB5894
:201B600098470136EEE7B300EB5898470136F2E7242500082425000824250008282500084D
:201B800003001218934200D1704719700133F9E70EB400B50B499CB01DAB0290069007917F
:201BA00004910948094904CB0591006802A9019300F070F80023029A13701CB008BC03B004
:201BC0001847C046FFFFFF7F040000200802FFFFF0B58E6885B007000C00039201939E420C
:201BE0003CD890238A89DB001A4234D00325096923685B1A0293636902985D43EB0F5D192B
:201C0000019B6D1001331B18AB4200D91D00530532D52900380000F023FB061E09D10C2366
:201C20003B6040230120A28940421343A38105B0F0BD029A216900F0ACFAA389144A1A405C
:201C400080231343A381029B2661F61826606561019EED1AA560019B9E4200D9019E320018
:201C60000399206800F09EFAA36800209B1BA36023689E192660DAE72A00380000F04EFBB0
:201C8000061EE0D12169380000F0A0FAC7E7C0467FFBFFFFF0B5A1B003901D008B890F002E
:201CA00016001B0611D50B69002B0ED1402100F0D7FA38603861002805D10C23039A013833
:201CC000136021B0F0BD40237B61002308AC6361203363761033A376079535002B78002B12
:201CE00001D0252B46D1AB1B05930CD0320039000398FFF76DFF431C00D1AEE06269059BE1
:201D00009446634463612B78002B00D1A5E0012200235242626004A9543252186E1C236014
:201D2000E360A3601370A36531780522534800F025FA751C00281FD12268D30604D55323FD
:201D400004A95B1820211970130704D5532304A95B182B21197033782A2B16D035000021FF
:201D60000A20E3682A786E1C303A092A4ED9002918D010E00135B1E7404B2268C01A01231C
:201D80008340134323602E00CEE7079B191D1B680791002B01DB0B9304E05B42E360022343
:201DA000134323602B782E2B0AD16B782A2B35D1079B02351A1D1B680792002B2BDB09933C
:201DC0002F4E29780322300000F0D8F9002806D04023801B834022680135134323602978D6
:201DE000062228486E1C217600F0C8F900283CD0254B002B25D10722079B0733934308339E
:201E000007936369049A9B18636166E7434301219B183500A6E701235B42D0E700230A2018
:201E20001A000135636029786E1C3039092903D9002BC5D00992C3E74243012352183500A0
:201E4000F1E707AB00933A00104B2100039800E000BF0490049B0133D3D1BB890D985B0620
:201E600000D42EE7012040422BE707AB00933A00064B2100039800F079F8EAE7E8240008F2
:201E8000EE240008F224000800000000D11B0008F7B5150001938A680B6900900C009342EA
:201EA00000DA130022002B6043321278002A01D001332B6023689B0602D52B6802332B6079
:201EC000062723681F4027D0230043331B785A1E93412268920630D422000199433200988D
:201EE000089EB047431C25D0062320682A68E16803400025042B03D18D1AEB43DB171D40D6
:201F0000A3682269934201DD9B1AED180027BD4220D1002010E00137E3682A689B1ABB42D0
:201F2000D2DD22000123193201990098089EB047431CF0D101204042FEBD3020E118433157
:201F4000087021005A1C45310978A218433202331170C1E7220001231A3201990098089E84
:201F6000B047431CE6D00137D1E70000F0B589B004920A0043320593039002920A7E0C001F
:201F80000E9B6E2A00D186E01FD8632A33D008D8002A00D18CE0582A4DD0250042352A7026
:201FA00030E0642A01D0692AF7D1196825680A1D280629D508681A60002803DA2D23029A1B
:201FC000404213706B4E0A274FE0732A74D008D86F2A1FD0702AE0D1202209680A432260CD
:201FE00003E0752A16D0782AD7D12200782145321170614E22E025001A684235111D196006
:020000040800F2
:2020000013682B70012365E008681A606906D3D500B2D1E719682568081D186008682E0687
:2020200005D5544E08276F2A1BD00A2719E06D06F7D580B2F5E745314E4E0A701868226864
:20204000011D00681960150621D5D30702D520231A4322601027002803D1202322689A43C0
:2020600022602300002243331A706368A360002B58DB0422216891432160002854D1029D7D
:20208000002B5AD02500337842352B7055E05506DBD580B2D9E71A680D68101D4969186089
:2020A00013682E0601D5196002E06D06FBD519800023029D23614FE01A68111D1960156849
:2020C00000216268280000F059F8002801D0401B6060636823610023029A13703CE023695F
:2020E0002A0004990398059DA847431C3ED023689B0715D4079BE068984239DA180037E064
:2021000022000123193204990398059EB047431C2CD00135E368079A9B1AAB42F0DCE9E7A1
:202120000025F7E70028ADD0029D3900FEF772F8735C013D2B700028F7D1082F09D123688C
:20214000DB0706D563682269934202DC3023013D2B70029B5B1B2361059B07AA00932100F1
:20216000049B0398FFF794FE431CB8D10120404209B0F0BDF92400080A250008C9B282183B
:20218000904201D10020704703788B42FBD00130F6E7002310B59A4200D110BDCC5CC45401
:2021A0000133F8E710B5884202D98B18984203D3002307E08B5C8354013AFBD210BDCC5C8A
:2021C000C45401339A42FAD1F8E7000070B50500002910D00C1F2368002B00DAE41828001B
:2021E00000F0D4F81D4A1368002B05D163601460280000F0CCF870BDA34209D92168601838
:202200008342F3D118685B6841182160EEE713005A68002A01D0A242F9D919685818A042EA
:202220000BD120680918581819608242E0D110685268411819605A60DAE7A04202D90C2350
:202240002B60D5E721686018824203D1106852684118216062605C60CAE7C0468C000020B1
:20226000032370B5CD1C9D43083506000C2D1ED20C25A9421DD8300000F088F8254A146842
:202280002100002919D1244C2368002B03D1300000F06AF820602900300000F065F8431C09
:2022A0002BD10C233000336000F071F803E0002DDFDA0C233360002070BD0B685B1B19D429
:2022C0000B2B03D90B60CC18256003E04B688C420DD11360300000F05AF8200007220B306D
:2022E000231D9043C31AE7D05A42E250E4E763600C00EFE70C004968C3E70323C41C9C43AD
:20230000A042E1D0211A300000F02EF8431CDBD1C7E7C0468C00002090000020F8B50700DA
:202320000D001600002905D11100FFF799FF04002000F8BD002A03D1FFF748FF3400F7E7B6
:2023400000F026F82C00B042F2D231003800FFF787FF041EECD029003200FFF71AFF290037
:202360003800FFF733FFE3E7002370B5064C050008002360FFF716FB431C03D12368002B19
:2023800000D02B6070BDC04618010020704770470B1F1B68181F002B01DA0B58C01870472C
:2023A000F8B5C046F8BC08BC9E467047F8B5C046F8BC08BC9E46704782130008B013000829
:2023C000C8130008321400080014000832140008321400083214000818140008BE120008BA
:2023E000F6120008101300087C130008481300087C1300087C1300087C1300086213000866
:20240000030406080C101820300000000000000000000000010203040607080900000000FB
:2024200001020304426F7279566974657220323032300A0D000000000D0A09426F727956DF
:202440006974657220323032302D417072696C2D3130207625642E25642E2564200D0A0964
:20246000554152543120666F72206465627567206F6E207370656564203131353230302FBB
:20248000382D4E2D310D0A0D0A0000004F7363206572726F72203D2025640A0D0000000071
:2024A000436C6B206572726F72203D2025640A0D00000000426F7279566974657220253080
:2024C00034640D0A0000000055415254312C203131353230302C20384269742C204E6F506F
:2024E00061726974790A0D00232D302B2000686C4C00656667454647003031323334353648
:202500003738394142434445460030313233343536373839616263646566000044DDFF7F7D
:2025200001000000E9000008C1000008000020000800002000000000000000000000000098
:2025400000000000000000000000000000000000000000000000000000000000000000007B
:2025600000000000000000000000000000000000000000000000000000000000000000005B
:14258000000000000000000000000000000000000000000047
:00000001FF
