:020000040800F2
:200000000020002075230008792200087B22000800000000000000000000000000000000B8
:200020000000000000000000000000007D22000800000000000000007F22000881220008C5
:20004000C5230008C5230008C5230008C5230008C5230008C5230008C5230008C523000820
:20006000C5230008C5230008C5230008C5230008C5230008C523000800000000C5230008F0
:2000800000000000C52300080000000000000000C523000800000000C5230008C5230008A0
:2000A000C5230008C5230008C5230008C5230008C5230008C5230008C5230008C5230008C0
:2000C00010B5064C2378002B07D1054B002B02D0044800E000BF0123237010BD6800002027
:2000E000000000006C2C0008084B10B5002B03D00749084800E000BF07480368002B00D155
:2001000010BD064B002BFBD09847F9E7000000006C0000206C2C0008680000200000000058
:20012000002243088B4274D303098B425FD3030A8B4244D3030B8B4228D3030C8B420DD3B0
:20014000FF22090212BA030C8B4202D31212090265D0030B8B4219D300E0090AC30B8B423D
:2001600001D3CB03C01A5241830B8B4201D38B03C01A5241430B8B4201D34B03C01A52419C
:20018000030B8B4201D30B03C01A5241C30A8B4201D3CB02C01A5241830A8B4201D38B02D2
:2001A000C01A5241430A8B4201D34B02C01A5241030A8B4201D30B02C01A5241CDD2C30997
:2001C0008B4201D3CB01C01A524183098B4201D38B01C01A524143098B4201D34B01C01A0C
:2001E000524103098B4201D30B01C01A5241C3088B4201D3CB00C01A524183088B4201D376
:200200008B00C01A524143088B4201D34B00C01A5241411A00D20146524110467047FFE748
:2002200001B5002000F006F802BDC0460029F7D076E770477047C046002B11D1002A0FD15D
:20024000002900D1002802D00021C943081C07B4024802A14018029003BDC046D9FFFFFF2B
:2002600003B4684601B5029800F006F8019B9E4602B00CBC7047C046F0B557464E464546C3
:20028000DE46E0B5040083B00D00924699468B422FD82CD04946504600F0AEF829000600F0
:2002A000200000F0A9F8331A9846203B9B4600D574E053465A4693401F00534642469340DE
:2002C0001E00AF4229D826D05B46A41BBD41002B00DA79E0002200230092019301235A462D
:2002E00093400193012342469340009319E08242D0D900220023009201930C9B002B01D011
:200300001C605D600098019903B03CBC90469946A246AB46F0BDA342D6D900220023009221
:2003200001934346002BE8D0FB0772081A4346467B080EE0AB4201D1A2420CD8A41A9D41C4
:20034000012024196D410021013E24184D41002E06D0AB42EED9013E24196D41002EF8D18E
:200360005B460098019900196941002B22DB2B005A46D3402A004446E2401C005B46150039
:20038000002B2CDB26009E40330026004746BE403200801A994100900191AEE7424620231B
:2003A0009B1A5246DA40414613004A468A4017001F4382E7424620239B1A2A0046469A40F0
:2003C0002300F3401343D5E74246202300219B1A0022009101920122DA40019282E742460D
:2003E000202326009B1ADE402F00B446974066463B003343C9E7C04610B5002903D100F0FC
:2004000007F8203002E0081C00F002F810BDC0461C2101231B04984201D3000C10391B0A22
:20042000984201D3000A08391B09984201D30009043902A2105C40187047C046040302027B
:200440000101010100000000000000000023C25C0133002AFBD1581E7047000010B5040037
:20046000074B1868FA218900FFF75AFE00F068F8002221000120404200F030F8002010BD7D
:200480000000002010B5064A136840210B4313600020FFF7E3FF01F0CFFE002010BDC046E1
:2004A00000200240024A1368013313607047C04698000020014B18687047C04698000020B6
:2004C00010B582B00190FFF7F5FF0400FFF7F2FF001B019B9842F9D302B010BD70B5002896
:2004E00011DB8308144DC0339B005C5903221040C000FC3216008640B44389010A40824015
:2005000022435A5170BDC0B20F230340083B9B0806339B00094A944663445D6803221040EF
:20052000C000FF2422008240954389010C4084402C435C60E6E7C04600E100E000ED00E0F6
:2005400001380A4B98420FD8094A50600948036A1B021B0AC02109060B4303620023936090
:2005600007331360002070470120FCE7FFFFFF0010E000E000ED00E0042805D0054A13688E
:2005800004218B4313607047024A136804210B431360F8E710E000E0704710B5FFF7FCFF75
:2005A00010BD0000F0B5C64600B500238EE0DF080837BF003E5807251D40AD000F22AA40AB
:2005C00096430A69AA40150035433D508EE085685F000326BE40B543CE68BE403543856061
:2005E0004568A5432C004A681609012535409D402C43446005685E0003242700B740FF438C
:200600003D404A681440B4402C430460C4683C408D68B5402C43C4604A68D20055D5404D30
:200620006C6B012634436C639C08A51CAD003D4EAE5903271F40BD000F27AF40BE43A0279F
:20064000FF05B84260D0384FB8425FD0374FB8425ED0374FB8425DD0364FB84252D0062793
:20066000AF403D0035430234A4002E4EA551324C25684246D44326002E404A68D20302D5EE
:20068000424615432E002C4D2E606D682E0026404A68920302D5424615432E00264D6E606F
:2006A000AD682E0026404A68D20202D5424615432E00214DAE60ED682C404A68920202D5CC
:2006C00042462A4314001C4AD46001330A681400DC4021D001249C4022409046F5D04D68FD
:2006E000022D00D163E7122D00D160E74D686E1E012E00D86BE7112D00D168E7122D00D052
:2007000078E764E70527ABE70027A9E70127A7E70227A5E70327A3E704BC9046F0BDC04652
:2007200000100240000001400004005000080050000C0050001C00500004014030B51B4B22
:20074000DB68F022134022D1184A926BD2000ED5174A1268C02149010A40C02149018A42A3
:2007600016D1C0221202904212D1012310E00F498C6B8022520522438A630D4A1268C02484
:20078000640122408C6B0B4D2C408C63E5E700230948026801218A431A43026002681140D5
:2007A0008B4201D0012030BD0020FCE70010024000700040FFFFFFEF0020024070B582B0E3
:2007C00004000368DB0740D5BA4BDA680C231340082B32D0B74BDA680C2313400C2B28D0C0
:2007E000636880225202934257D0A022D20293425AD0B04B1A68B0490A401A601A6880214A
:2008000049020A400192019A1A68AC490A401A606368002B54D0FFF74DFE0500A54B1B6807
:200820009B0312D4FFF746FE401B6428F6D9032066E2A04BDB68DB03D2D59E4B1B689B031C
:2008400003D56368002B00D153E223689B075AD5984BDA680C231340042B43D0954BDA685D
:200860000C2313400C2B39D0E368002B00D1ADE090490A680920824313430B60FFF71AFEDA
:2008800005008C4B1B685B0700D596E0FFF712FE401B0228F5D9032032E2864A11688023D0
:2008A0005B020B431360B3E7824B19688022D2020A431A601968802252020A431A60A7E729
:2008C000FFF7F8FD05007B4B1B689B03BDD5FFF7F1FD401B6428F6D9032011E2754BDB68FC
:2008E000DB03C1D4734B1B685B0704D5E368012B01D0012004E26F494B68714A13402269B6
:20090000120213434B602368DB063BD5694BDB680C221A4200D080E0664B1B689B0503D5E9
:20092000E369002B00D1E6E1606A624B5B68E0221202134098425CD9FFF700FF002800D009
:20094000DBE15C4A53685F490B40616A0B43536053681B021B0A216A09060B435360636A56
:200960005A0B013280231B029340524AD16809090F220A4054498A5CD340544A1360002023
:20098000FFF76CFD23681B0700D4A3E06369002B7CD0484A136D01210B431365FFF78AFD3A
:2009A0000500444B1B6D9B0700D593E0FFF782FD401B0228F5D90320A2E13E494B68404AFF
:2009C00013402269120213434B609CE7394A136801218B431360FFF76DFD0500354B1B68D8
:2009E0005B0790D5FFF766FD401B0228F6D9032086E1304A536833490B4018435060536837
:200A00001B021B0A216A09060B435360606AFFF795FE0028A3D0012072E1E369002B22D02E
:200A2000244A116880235B000B431360FFF742FD0500204B1B689B0506D4FFF73BFD401BE5
:200A40000228F6D903205BE11A4A53681D490B40616A0B43536053681B021B0A216A09060B
:200A60000B4353608EE7134A136819490B401360FFF720FD05000F4B1B689B0582D5FFF726
:200A800019FD401B0228F6D9032039E1094A136D01218B431365FFF70DFD0500054B1B6D97
:200AA0009B0717D5FFF706FD401B0228F6D9032026E1C04600100240FFFFFEFFFFFFFBFFE6
:200AC000FFE0FFFFFF1FFFFFD82C000800000020FFFEFFFF23685B0778D58B4B9B6BDB0005
:200AE0002CD4894A916B80235B050B4393630125864B1B68DB0523D5A368802252009342BA
:200B000032D0002B37D1804B1A6D81490A401A651A6D80490A401A65A368002B45D0FFF761
:200B2000C9FC0600784B1B6D9B054DD4FFF7C2FC801B794B9842F5D90320E1E00025D7E75C
:200B4000724A116880235B000B431360FFF7B2FC06006E4B1B68DB05CED4FFF7ABFC801B01
:200B60006428F6D90320CBE0674A116D80235B000B431365D0E7A022D200934209D0624BB3
:200B80001A6D63490A401A651A6D62490A401A65C2E75D4B196D013AFF3A0A431A65196DC1
:200BA000802252000A431A65B6E7FFF783FC0600554B1B6D9B0507D5FFF77CFC801B564B0F
:200BC0009842F5D903209BE0012D21D023689B063CD5A369002B21D04B4B9968012001434F
:200BE00099605A6B02435A634C4A116A80239B010B431362FFF75EFC0500434B9B689B079A
:200C000024D4FFF757FC401B0228F6D9032077E03D4A936B42490B409363D7E73A4A936837
:200C200001218B4393603D4A136A3E490B401362FFF740FC0500344B9B689B0706D5FFF75A
:200C400039FC401B0228F6D9032059E0A36A002B55D02D4AD1680C220A400C2A52D0022BA5
:200C600012D0294A136830490B401360FFF722FC0400254B1B689B0139D5FFF71BFC001B90
:200C80000228F6D903203BE01F4A136826490B401360FFF70FFC05001B4B1B689B0106D5A6
:200CA000FFF708FC401B0228F6D9032028E01649CB681E4A1340E26A206B0243606B024342
:200CC0001343CB600A6880235B0413430B60FFF7F1FB04000C4B1B689B0106D4FFF7EAFB4D
:200CE000001B0228F6D903200AE0002008E0002006E0012004E0012002E0012000E000209C
:200D000002B070BD0120FBE70010024000700040FFFEFFFFFFFBFFFF881300000000014020
:080D2000FFFFFFEFFFDFFFFF03
:00000001FF
